:100000000C9434000C9451000C9451000C94510049
:100010000C9477000C9451000C9451000C945100F6
:100020000C9451000C9451000C9451000C9451000C
:100030000C9451000C9451000C94BC000C94510091
:100040000C9451000C9451000C9451000C945100EC
:100050000C9451000C9451000C9451000C945100DC
:100060000C9451000C94510011241FBECFEFD8E026
:10007000DEBFCDBF11E0A0E0B1E0E2E6FEE002C0ED
:1000800005900D92A435B107D9F721E0A4E5B1E0C0
:1000900001C01D92AB37B207E1F70E9459010C94E1
:1000A0002F070C94000020915C0130915D012130FC
:1000B000310559F429988EBD0DB407FEFDCF6EBDF4
:1000C0000DB407FEFDCF299A08952A988EBD0DB470
:1000D00007FEFDCF6EBD0DB407FEFDCF2A9A089531
:1000E000439A82E08A95F1F700C0439808951F92E1
:1000F0000F920FB60F9211248F939F9386B1827047
:1001000090916001911122C0882361F081E0809379
:100110005F0180916101909162010196909362016B
:100120008093610190915F0180916001981739F08F
:1001300081E080935E0180915F01809360019F91D7
:100140008F910F900FBE0F901F90189590916001A6
:10015000913041F78111E6CF10925F01DACF14BCE4
:1001600085B5816085BD89EF87BDEEE6F0E08081D1
:1001700082608083789408951F920F920FB60F9239
:1001800011248F939F93AF93BF93809154019091CB
:100190005501A0915601B09157010196A11DB11DC5
:1001A0008093540190935501A0935601B093570149
:1001B000BF91AF919F918F910F900FBE0F901F90A5
:1001C0001895F894609154017091550180915601F1
:1001D00090915701789408959BB19F709BB99BB102
:1001E000807F892B8BB9449A449A44980895CF9381
:1001F000C82F45980E94EC008C2F8295807F0E942A
:10020000EC0080E791E00197F1F700C0CF910895ED
:10021000811104C080E8860F0C94F70080ECFBCFBE
:100220008AB1806F8AB987B1806387B98CEC9AE014
:100230000197F1F700C0000080E30E94EC0089E91B
:1002400093E00197F1F700C080E30E94EC009DE18C
:100250009A95F1F700C080E30E94EC0080E20E94D2
:10026000EC0080E791E00197F1F700C088E20E947E
:10027000F7008FE00C94F700CF93C82F459A0E94A7
:10028000EC008C2F8295807F0E94EC0080E791E04B
:100290000197F1F700C0CF910895CF93DF93EC0160
:1002A0008991811103C0DF91CF9108950E943C0193
:1002B000F7CFCF93DF93CDB7DEB72A970FB6F89479
:1002C000DEBF0FBECDBF8AB18AB98BB18F608BB94B
:1002D00084B18E6284B985B1866085B98CB581653B
:1002E0008CBD3B9A3A982098279838983998419A2B
:1002F0008091680082608093680080916C008260C9
:1003000080936C0078940E94AF0010E01F5F60E063
:10031000812F0E9453001031C9F72FEF3FE141E0D8
:10032000215030404040E1F700C000000E94100121
:1003300081E00E94F7005FEF8FE392E05150804030
:100340009040E1F700C0000062E080E00E940801F8
:1003500080E091E00E944D0162E081E00E9408018E
:100360008CE091E00E944D01EFEFFFEF2CE2E150B5
:10037000F0402040E1F700C000C081E00E94F7009B
:1003800066E080E00E94080110E0AE014F5F5F4F21
:100390003A018091610190916201092E000CAA0B33
:1003A000BB0B80936B0190936C01A0936D01B09394
:1003B0006E0180916B0190916C01A0916D01B091E3
:1003C0006E018093730190937401A0937501B093B3
:1003D00076010E94E1006B017C01C0926F01D09216
:1003E0007001E0927101F09272018090730190901F
:1003F0007401A0907501B090760180916701909191
:100400006801A0916901B0916A01A5019401281BBE
:10041000390B4A0B5B0BCA01B9010E94010621E2AC
:1004200030EB42E050E40E948D0620E030E04AE7E5
:1004300054E40E948D061B012C0180916301909170
:100440006401A0916501B0916601A7019601281B86
:10045000390B4A0B5B0BCA01B9010E94FF059B01D6
:10046000AC01C201B1010E9457050E94C905DC011F
:10047000CB018093770190937801A0937901B09399
:100480007A018092670190926801A0926901B0920E
:100490006A01C0926301D0926401E0926501F0921A
:1004A00066014AE0B3010E94FA06F30101900020C0
:1004B000E9F7CF01029766E08615970509F014C1A8
:1004C00080E00E94080181E591E00E944D0167E013
:1004D00080E00E940801C3010E944D01FFEF2FE35D
:1004E00032E0F15020403040E1F700C000009FEFC3
:1004F000EFE7F4E09150E040F040E1F700C0000089
:10050000489961C08FEF93E20197F1F700C00000B6
:10051000489959C081E090E090935D0180935C011F
:100520001111F0C060E08FE00E94530060E089E0AC
:100530000E94530068E08AE00E9453006FE08BE065
:100540000E94530061E08CE00E94530080E011E0C3
:10055000180F873031F06CE3863021F06EE785307C
:1005600009F068E1812F0E945300812F183079F73C
:100570009FEFEFE7F4E09150E040F040E1F700C07A
:10058000000010E01F5F60E0812F0E9453001830D0
:10059000C9F72FEF3FE744E0215030404040E1F7FA
:1005A00000C000004899D2CF8FEF93E20197F1F796
:1005B00000C000004899CACF10925D0110925C0102
:1005C000489BFECF10E04B9961C0EFEFF3E231970B
:1005D000F1F700C000004B9959C082E090E0909381
:1005E0005D0180935C01111196C060E08FE00E9474
:1005F000530060E089E00E94530068E08AE00E94B6
:1006000053006FE08BE00E94530061E08CE00E9499
:10061000530080E011E0180F882331F06CE3813043
:1006200021F06EE7823009F068E1812F0E945300CB
:10063000812F183079F7FFEF2FE734E0F150204099
:100640003040E1F700C0000010E01F5F60E0812F44
:100650000E9453001830C9F74FEF5FE784E0415024
:1006600050408040E1F700C000004B99D2CFEFEF3F
:10067000F3E23197F1F700C000004B99CACF109216
:100680005D0110925C014B9BFECF10E0499988C040
:100690008FEF93E20197F1F700C00000499980C005
:1006A00081E090E090935D0180935C011111A6C000
:1006B00060E08FE00E94530060E089E00E945300F8
:1006C00068E08AE00E9453006FE08BE00E945300D4
:1006D00061E08CE00E94530080915A0190915B018F
:1006E000892B11F511E05AC080E00E940801C30176
:1006F0000E944D014FEF5FE382E041505040804047
:10070000E1F7F3CE10E01F5F60E0812F0E945300FD
:100710001830C9F755CF10E01F5F60E0812F0E94AD
:1007200053001830C9F7AFCF80E001E0080F8730E1
:1007300031F06CE3863021F06EE7853009F068E136
:10074000802F0E945300802F083079F79FEFEFE74A
:10075000F4E09150E040F040E1F700C0000000E01C
:100760000F5F60E0802F0E9453000830C9F72FEF21
:100770003FE744E0215030404040E1F700C0000036
:100780004999AACF8FEF93E20197F1F700C00000DB
:100790004999A2CF10925D0110925C01499BFECF56
:1007A0004A9972C0EFEFF3E23197F1F700C0000011
:1007B0004A996AC082E090E090935D0180935C0169
:1007C0001111FDC060E08FE00E94530060E089E0FD
:1007D0000E94530068E08AE00E9453006FE08BE0C3
:1007E0000E94530061E08CE00E9453008091580108
:1007F00090915901892B61F411E044C010E01F5F12
:1008000060E0812F0E9453001830C9F710E0C6CF76
:1008100080E001E0080F882331F06CE3813021F0A3
:100820006EE7823009F068E1802F0E945300802F2C
:10083000083079F7FFEF2FE734E0F15020403040E7
:10084000E1F700C0000000E00F5F60E0802F0E9431
:1008500053000830C9F74FEF5FE784E04150504044
:100860008040E1F700C000004A99C0CFEFEFF3E20B
:100870003197F1F700C000004A99B8CF10925D019E
:1008800010925C014A9BFECF0E947000329BFECF0B
:10089000912C812C32999DC00E947000189BFECF34
:1008A000B12CA12C18999AC00E9470001F9BFECFFA
:1008B000D12CC12C1F9997C00E947000309BFECF95
:1008C000F12CE12C309994C0B40175956795072EF1
:1008D000000C880B990B0E9401062DEC3CEC48EEB5
:1008E00051E40E9457050E94C9054B01B501759559
:1008F0006795072E000C880B990B0E9401062DECC2
:100900003CEC48EE51E40E9457050E94C9055B018A
:10091000B60175956795072E000C880B990B0E9400
:1009200001062DEC3CEC48EE51E40E9457050E9474
:10093000C9056B01B70175956795072E000C880BEB
:10094000990B0E9401062DEC3CEC48EE51E40E940C
:1009500057050E94C90553E0851691042CF083E0E9
:10096000A816B1040CF06AC093E0C916D10424F0B3
:10097000633071050CF041C010925901109258017A
:1009800010925B0110925A0161E081E00E9408011F
:1009900089E191E00E944D01EFEFFFE724E0E15093
:1009A000F0402040E1F700C000009FEFEFE1F1E0F0
:1009B0009150E040F040E1F700C00000EACC10E0C8
:1009C0001F5F60E0812F0E9453001830C9F710E0CC
:1009D00059CF0000FFEF8F1A9F0A5CCF00002FEF66
:1009E000A21AB20A5FCF00003FEFC31AD30A62CF48
:1009F00000004FEFE41AF40A65CF33E08316910448
:100A000024F043E0A416B104CCF5109259011092E1
:100A1000580181E090E090935B0180935A0161E07E
:100A20000E94080187E291E00E944D015FEF8FE78D
:100A300094E0515080409040E1F7B5CFE3E0CE160E
:100A4000D1041CF063307105CCF481E090E0909308
:100A500059018093580110925B0110925A0161E094
:100A60000E94080186E391E00E944D01FFEF2FE70D
:100A700034E0F15020403040E1F795CF81E090E044
:100A8000909359018093580190935B0180935A0190
:100A900061E00E94080184E491E00E944D014FEF63
:100AA0005FE784E0415050408040E1F77CCF0E94F6
:100AB0006B050C9453060E944C0658F00E944506A4
:100AC00040F029F45F3F29F00C943C0651110C943E
:100AD00087060C9442060E94640668F39923B1F3DA
:100AE000552391F3951B550BBB27AA276217730754
:100AF000840738F09F5F5F4F220F331F441FAA1FE8
:100B0000A9F335D00E2E3AF0E0E832D091505040A3
:100B1000E695001CCAF72BD0FE2F29D0660F771F51
:100B2000881FBB1F261737074807AB07B0E809F037
:100B3000BB0B802DBF01FF2793585F4F3AF09E3FBC
:100B4000510578F00C943C060C9487065F3FE4F363
:100B5000983ED4F3869577956795B795F7959F5FFF
:100B6000C9F7880F911D9695879597F90895E1E04B
:100B7000660F771F881FBB1F621773078407BA07AA
:100B800020F0621B730B840BBA0BEE1F88F7E09505
:100B900008950E94D0056894B1110C9487060895B9
:100BA0000E946C0688F09F5798F0B92F9927B7518B
:100BB000B0F0E1F0660F771F881F991F1AF0BA9501
:100BC000C9F714C0B13091F00E948606B1E00895D3
:100BD0000C948606672F782F8827B85F39F0B93FC5
:100BE000CCF3869577956795B395D9F73EF49095B4
:100BF0008095709561957F4F8F4F9F4F0895E89432
:100C000009C097FB3EF490958095709561957F4F54
:100C10008F4F9F4F9923A9F0F92F96E9BB27939502
:100C2000F695879577956795B795F111F8CFFAF412
:100C3000BB0F11F460FF1BC06F5F7F4F8F4F9F4F43
:100C400016C0882311F096E911C0772321F09EE8A1
:100C5000872F762F05C0662371F096E8862F70E007
:100C600060E02AF09A95660F771F881FDAF7880FE1
:100C70009695879597F9089597F99F6780E870E0B2
:100C800060E008959FEF80EC089500240A94161602
:100C9000170618060906089500240A94121613066A
:100CA000140605060895092E0394000C11F48823F8
:100CB00052F0BB0F40F4BF2B11F460FF04C06F5F14
:100CC0007F4F8F4F9F4F089557FD9058440F551FEA
:100CD00059F05F3F71F04795880F97FB991F61F0BE
:100CE0009F3F79F087950895121613061406551F35
:100CF000F2CF4695F1DF08C0161617061806991FA1
:100D0000F1CF86957105610508940895E894BB2795
:100D100066277727CB0197F908950E94A0060C94C7
:100D200053060E94450638F00E944C0620F0952399
:100D300011F00C943C060C94420611240C94870686
:100D40000E94640670F3959FC1F3950F50E0551F04
:100D5000629FF001729FBB27F00DB11D639FAA2710
:100D6000F00DB11DAA1F649F6627B00DA11D661F5F
:100D7000829F2227B00DA11D621F739FB00DA11D80
:100D8000621F839FA00D611D221F749F3327A00D3A
:100D9000611D231F849F600D211D822F762F6A2FD6
:100DA00011249F5750409AF0F1F088234AF0EE0F3B
:100DB000FF1FBB1F661F771F881F91505040A9F768
:100DC0009E3F510580F00C943C060C9487065F3FD3
:100DD000E4F3983ED4F3869577956795B795F795A4
:100DE000E7959F5FC1F7FE2B880F911D969587951C
:100DF00097F90895BB274A3031F4992322F4BDE2D4
:100E0000909581959F4F0C940607BB27FB015527B2
:100E1000AA27880F991FAA1FA41710F0A41B839557
:100E20005051B9F7A05DAA3308F0A95DA1930097CE
:100E300079F7B111B1931192CB010C941F07DC012A
:100E4000FC01672F71917723E1F7329704C07C9101
:100E50006D9370836291AE17BF07C8F30895F8943D
:020E6000FFCFC2
:100E620048656C6C6F2052696465720052656164FA
:100E72007920546F20476F2100426F7468204E6FB3
:100E8200742053616665005269676874204E6F74FE
:100E92002053616665004C656674204E6F74205362
:100EA2006166650020202020205361666520202095
:040EB20020200000FC
:00000001FF
